:100000000C946D030C9495030C9495030C94BA27EF
:100010000C94BA270C94BA270C9495030C9495036E
:100020000C9495030C9495030C9495030C94FE2664
:100030000C9495030C9495030C9495030C949503E0
:100040000C9495250C9495030C9463250C943D25F4
:100050000C9495030C9495030C9495030C949503C0
:100060000C94DF250C94950305A84CCDB2D44EB961
:100070003836A9020C50B9918688083CA6AAAA2A4B
:10008000BE000000803F41221408142241000041BC
:10009000221408142241003078787C3C08000008C3
:1000A0003C7C7878300000201008102010000020E0
:1000B00010081020100000007EFF7E0000000000ED
:1000C000007EFF7E0000003C66667C783000003CCD
:1000D00066667C783000003C7E66647830000030D4
:1000E0007864667E3C00000C1E3C3C1E0C00000C3C
:1000F0001E3C3C1E0C00007C82BAAA8A7800007C60
:1001000082BAAA8A78000022140814220000000093
:100110002214081422000022322A262200000000A5
:1001200022322A2622000030784C4E7E3C00003CD1
:100130007E4E4C783000003C020202023C00003C43
:10014000020202023C00252500410026260025254A
:1001500000460026260000000000003E5B4F5B3E8C
:100160003E6B4F6B3E1C3E7C3E1C183C7E3C181C7C
:10017000577D571C1C5E7F5E1C00183C1800FFE773
:10018000C3E7FF0018241800FFE7DBE7FF30483A19
:10019000060E2629792926407F050507407F05257B
:1001A0003F5A3CE73C5A7F3E1C1C08081C1C3E7F03
:1001B00014227F22145F5F005F5F06097F017F00CA
:1001C0006689956A606060606094A2FFA2940804EA
:1001D0007E040810207E201008082A1C08081C2A0B
:1001E00008081E101010100C1E0C1E0C30383E3863
:1001F00030060E3E0E06000000000000005F00000A
:100200000007000700147F147F14242A7F2A12237A
:100210001308646236495620500008070300001C8A
:100220002241000041221C002A1C7F1C2A08083E93
:1002300008080080703000080808080800006060A6
:100240000020100804023E5149453E00427F400014
:1002500072494949462141494D331814127F1027EC
:10026000454545393C4A494931412111090736493B
:10027000494936464949291E00001400000040340F
:100280000000000814224114141414140041221414
:100290000802015909063E415D594E7C1211127C3B
:1002A0007F494949363E414141227F4141413E7F9C
:1002B000494949417F090909013E414151737F087C
:1002C00008087F00417F41002040413F017F081422
:1002D00022417F404040407F021C027F7F04081083
:1002E0007F3E4141413E7F090909063E4151215E61
:1002F0007F09192946264949493203017F01033FF5
:100300004040403F1F2040201F3F4038403F631483
:1003100008146303047804036159494D43007F4185
:1003200041410204081020004141417F04020102C2
:1003300004404040404000030708002054547840E7
:100340007F284444383844444428384444287F387B
:100350005454541800087E090218A4A49C787F08FD
:1003600004047800447D40002040403D007F102878
:10037000440000417F40007C047804787C08040439
:10038000783844444438FC1824241818242418FCD1
:100390007C08040408485454542404043F44243C76
:1003A0004040207C1C2040201C3C4030403C4428E5
:1003B0001028444C9090907C4464544C440008367F
:1003C00041000000770000004136080002010204ED
:1003D000023C2623263C1EA1A161123A4040207A0D
:1003E0003854545559215555794122545478422155
:1003F0005554784020545579400C1E52721239558C
:100400005555593954545459395554545800004588
:100410007C410002457D420001457C407D12111265
:100420007DF0282528F07C545545002054547C54F8
:100430007C0A097F4932494949323A4444443A32B4
:100440004A4848303A4141217A3A42402078009D5A
:10045000A0A07D3D4242423D3D4040403D3C24FF06
:100460002424487E4943662B2FFC2F2BFF0929F6B5
:1004700020C0887E090320545479410000447D4106
:100480003048484A32384040227A007A0A0A727D5F
:100490000D19317D2629292F28262929292630487A
:1004A0004D4020380808080808080808382F10C8E8
:1004B000ACBA2F102834FA00007B000008142A146C
:1004C0002222142A14085500550055AA55AA55AAE7
:1004D000FF55FF55FF000000FF00101010FF001433
:1004E0001414FF001010FF00FF1010F010F014148F
:1004F00014FC001414F700FF0000FF00FF1414F4B4
:1005000004FC141417101F10101F101F1414141FB4
:1005100000101010F0000000001F101010101F102D
:10052000101010F010000000FF101010101010102C
:100530001010FF10000000FF140000FF00FF00007B
:100540001F10170000FC04F414141710171414F4EF
:1005500004F40000FF00F714141414141414F7002A
:10056000F7141414171410101F101F141414F4147B
:100570001010F010F000001F101F0000001F1400EA
:100580000000FC140000F010F01010FF10FF141415
:1005900014FF141010101F00000000F010FFFFFFE8
:1005A000FFFFF0F0F0F0F0FFFFFF0000000000FFA1
:1005B000FF0F0F0F0F0F3844443844FC4A4A4A34A7
:1005C0007E02020606027E027E02635549416338BE
:1005D00044443C04407E201E2006027E020299A56F
:1005E000E7A5991C2A492A1C4C7201724C304A4DCD
:1005F0004D303048784830BC625A463D3E49494902
:10060000007E0101017E2A2A2A2A2A44445F4444AA
:1006100040514A444040444A51400000FF0103E039
:1006200080FF000008086B6B083612362436060F70
:10063000090F06000018180000001010003040FFDD
:100640000101001F01011E00191D1712003C3C3C56
:100650003C00000000000000000800020100000350
:1006600004070000000000000000573A41434B001F
:10067000003C7E66667E3C00003C7E66667E3C00FA
:10068000003C72727E7E3C00003C72727E7E3C00BA
:1006900000000000240027002A00000000002300C2
:1006A0002600290000000000250028002B0004047B
:1006B000040404040404020202020202030303030A
:1006C00003030102040810204080010204081020E6
:1006D0000102040810203228232E11241FBECFEF60
:1006E000D8E0DEBFCDBF12E0A0E0B1E0EEE2FCE674
:1006F00002C005900D92AC3EB107D9F727E0ACEEF1
:10070000B2E001C01D92A531B207E1F713E0CCE6DB
:10071000D3E004C02197FE010E944533CB36D107B8
:10072000C9F70E9478290C940A360C940000E0ED79
:10073000F4E0138E128E158E148E178E168E11A263
:1007400010A213A212A215A214A217A216A211A6F9
:1007500010A6089508950895EF92FF920F931F93A6
:10076000CF93DF938C017B01D0E0C0E0F701EC0F69
:10077000FD1F6491662361F0D801ED91FC91019019
:10078000F081E02DC8010995892B11F02196EECF5B
:10079000CE01DF91CF911F910F91FF90EF900895BF
:1007A000AF92BF92CF92DF92EF92FF920F931F937F
:1007B000CF93DF936C017B018B01040F151FEB01BD
:1007C0005E01AE18BF08C017D10759F06991D60174
:1007D000ED91FC910190F081E02DC6010995892BE6
:1007E00079F7C501DF91CF911F910F91FF90EF90A5
:1007F000DF90CF90BF90AF900895FC01538D448D52
:10080000252F30E0842F90E0821B930B541710F0BB
:10081000CF96089501970895FC01918D828D9817C8
:1008200061F0A28DAE0FBF2FB11D5D968C91928DA0
:100830009F5F9F73928F90E008958FEF9FEF0895D1
:10084000FC01918D828D981731F0828DE80FF11D9A
:10085000858D90E008958FEF9FEF0895FC01918DB5
:10086000228D892F90E0805C9F4F821B91098F73AE
:100870009927089582E094E00E942E0421E0892BBC
:1008800009F420E0822F089580E090E0892B29F080
:100890000E943A0481110C9400000895FC01A48D7B
:1008A000A80FB92FB11DA35ABF4F2C91848D90E092
:1008B00001968F739927848FA689B7892C93A08975
:1008C000B1898C91837080648C93938D848D9813FF
:1008D00006C00288F389E02D80818F7D8083089592
:1008E000EF92FF920F931F93CF93DF93EC0181E080
:1008F000888F9B8D8C8D98131AC0E889F989808127
:1009000085FF15C09FB7F894EE89FF896083E88959
:10091000F98980818370806480839FBF81E090E04B
:10092000DF91CF911F910F91FF90EF900895F62ED8
:100930000B8D10E00F5F1F4F0F731127E02E8C8D72
:100940008E110CC00FB607FCFACFE889F9898081B7
:1009500085FFF5CFCE010E944E04F1CFEB8DEC0F59
:10096000FD2FF11DE35AFF4FF0829FB7F8940B8FD4
:10097000EA89FB8980818062CFCFCF93DF93EC013E
:10098000888D8823B9F0AA89BB89E889F9898C9177
:1009900085FD03C0808186FD0DC00FB607FCF7CF33
:1009A0008C9185FFF2CF808185FFEDCFCE010E9433
:1009B0004E04E9CFDF91CF910895833081F028F480
:1009C000813099F08230A9F008958730A9F08830FD
:1009D000C9F08430B1F4809180008F7D03C0809194
:1009E00080008F7780938000089584B58F7784BDD1
:1009F000089584B58F7DFBCF8091B0008F77809371
:100A0000B00008958091B0008F7DF9CFCF93DF9330
:100A1000282F30E0F901EA5AF94F8491F901EE5399
:100A2000F94FD491F901E255F94FC491CC23A1F0CB
:100A300081110E94DD04EC2FF0E0EE0FFF1FE6565F
:100A4000F94FA591B491EC91ED2381E090E009F488
:100A500080E0DF91CF91089580E090E0FACF1F937E
:100A6000CF93DF93282F30E0F901EA5AF94F8491B0
:100A7000F901EE53F94FD491F901E255F94FC491C0
:100A8000CC23A9F0162F81110E94DD04EC2FF0E099
:100A9000EE0FFF1FEC55F94FA591B4918FB7F89465
:100AA000EC91111108C0D095DE23DC938FBFDF914C
:100AB000CF911F910895DE2BF8CFCF93DF9390E075
:100AC000FC01EE53F94F24918255994FFC0184911A
:100AD0008823D1F090E0880F991FFC01E057F94F6F
:100AE000A591B491FC01EC55F94FC591D4916111D8
:100AF0000EC09FB7F8948C91E22FE0958E238C93D3
:100B00002881E223E8839FBFDF91CF9108958FB7BB
:100B1000F894EC91E22BEC938FBFF6CF3FB7F894AB
:100B20008091970390919803A0919903B0919A03B3
:100B300026B5A89B05C02F3F19F00196A11DB11D38
:100B40003FBFBA2FA92F982F8827BC01CD01620F74
:100B5000711D811D911D42E0660F771F881F991F2F
:100B60004A95D1F708958F929F92AF92BF92CF92FC
:100B7000DF92EF92FF926B017C010E948E054B0188
:100B80005C01C114D104E104F104B9F00E948E05A6
:100B9000681979098A099B09683E734081059105A6
:100BA00080F321E0C21AD108E108F10888EE880E2E
:100BB00083E0981EA11CB11CE4CFFF90EF90DF9062
:100BC000CF90BF90AF909F908F9008952FB7F894DB
:100BD0006091930370919403809195039091960393
:100BE0002FBF08952F923F924F925F926F927F9204
:100BF0008F929F92AF92BF92CF92DF92EF92FF922D
:100C00000F931F93CF93DF9300D000D000D0CDB7C8
:100C1000DEB769017A010115110511F401E010E058
:100C20000E942E319B01AC01EE24FF2421153105D9
:100C30004105510511F5C701B6010E94B305B80180
:100C4000110F880B990B26960FB6F894DEBF0FBED6
:100C5000CDBFDF91CF911F910F91FF90EF90DF906B
:100C6000CF90BF90AF909F908F907F906F905F904C
:100C70004F903F902F900C94B30560E472E48FE0A6
:100C800090E00E94A92F29013A018091F0069091ED
:100C9000F1069927FC01EE53F94F249129838255DF
:100CA000994FFC012491E22FF0E0EE0FFF1FEC556D
:100CB000F94F259134913E832D83FC018491E82FD7
:100CC000F0E0EE0FFF1FE057F94FA591B4918C9122
:100CD000F9818F2B8C930E94E6054B015C01D301B7
:100CE000C201B695A795979587959B838A831C012A
:100CF000220C331C220C331C25E0221A3108481A1E
:100D0000590A3201660C771C660C771C35E0631AB1
:100D10007108898180958C830E94E605681979099C
:100D20008A099B096C157D058E059F0508F087CF04
:100D3000ED81FE818081F9818F2BED81FE818083A1
:100D40002A813B812230310518F0C1010197F1F76A
:100D5000ED81FE818081FC818F23ED81FE81808386
:100D6000F2E04F165104C0F2C3010197F1F7D4CF5E
:100D70004F925F926F927F928F929F92AF92BF92AB
:100D8000CF92DF92EF92FF920F931F93CF93DF9357
:100D9000CDB7DEB728970FB6F894DEBF0FBECDBF34
:100DA0002B013C0129833A834B835C83ED82FE82D5
:100DB0000F8318870E9427318B0129813A814B814B
:100DC0005C81C301B2010E94B03087FF25C0B80129
:100DD000110F880B990B0E945F312B013C01AC0174
:100DE0009B0169817A818B819C810E940F32181648
:100DF000C4F58401A6019501C301B2010E94F20568
:100E00002D813E814F815885C301B2010E94143269
:100E10000E9427318B01DBCFB801110F880B990B92
:100E20000E945F312B013C01AC019B0169817A81F9
:100E30008B819C810E94B03087FF13C08401A60182
:100E40009501C301B2010E94F2052D813E814F81BF
:100E50005885C301B2010E94B5300E9427318B0131
:100E6000DBCF28960FB6F894DEBF0FBECDBFDF9163
:100E7000CF911F910F91FF90EF90DF90CF90BF9097
:100E8000AF909F908F907F906F905F904F9008955C
:100E90008F929F92AF92BF92CF92DF92EF92FF928A
:100EA0000F931F93CF93DF93019782319105B8F48D
:100EB000FC01E35AF84F0C944533A007C307F7072A
:100EC0000A082108440870089F08CE08FD08270971
:100ED0004C097A09A509BC09FD09140A2B0A0EE17F
:100EE00010E022E330E040E050E064EA70ED84E29C
:100EF00094E40E94F20509E110E027E330E040E0CD
:100F000050E062E570ED84EA94E40E94F2050AE0A4
:100F100010E02CE330E040E050E060E070E08CED69
:100F200094E40E94F205DF91CF911F910F91FF9001
:100F3000EF90DF90CF90BF90AF909F908F900895EB
:100F40000EE110E022E330E040E050E064EA70EDB2
:100F500084E294E40E94F20509E110E027E330E026
:100F600040E050E060E070E08CED94E40E94F20517
:100F70000AE010E022E330E040E050E062E570ED8E
:100F800084EA94E4CECF92E0892E912C24E1A22E23
:100F9000B12CC12CD12C1AE0E12E17EDF12E03E873
:100FA0001FE32CE53FEF43EC54E462E570ED84EA87
:100FB00094E40E94B8066EE170E080E090E00E9448
:100FC000B3054AE0A42EB12CC12CD12C18EBE12E94
:100FD0001EE1F12E05E81FE32FE135ED42E155E476
:100FE00062E570ED84EA94E40E94B8069CCFCAE002
:100FF0008C2E912CDEE1AD2EB12CC12CD12C1CE518
:10100000E12E1FE8F12E02E81FE320E030E04CED76
:1010100054E4E6CFFAE08F2E912CAEE1AA2EB12C4B
:10102000C12CD12C1AE0E12E17EDF12E03E81FE3BD
:101030002FE135ED42E155E46CE57FEF83EC94E47C
:10104000D3CF04E610E022E330E040E050E062E578
:1010500070ED84EA94E40E94F20500E510E022E3DA
:1010600030E040E050E06CE57FEF83EC94E40E94D8
:10107000F20510E000E02CE231E040E050E06FE1EA
:1010800075ED82E195E44DCF88248394912C5AE04C
:10109000A52EB12CC12CD12C1CE5E12E1FE8F12E80
:1010A00002E81FE320E030E646E055E460E070E04F
:1010B00088E494E40E94B80677E0A72EB12CC12CF6
:1010C000D12C1AE0E12E17EDF12E03E81FE320E00A
:1010D00030E048E454E460E070E586E095E484CFD5
:1010E00093E0892E912C28E0A22EB12CC12CD12C7A
:1010F00018EBE12E1EE1F12E05E81FE320E030E0C1
:101100004AEF54E460E070E08CE594E40E94B80695
:1011100068EC70E080E090E00E94B305C6E1D0E0AA
:101120000AE010E025E030E040E050E068E471EFD4
:1011300086E794E40E94F205219791F7F4CEC3E08C
:101140008C2E912CD8E0AD2EB12CC12CD12C1AE0D4
:10115000E12E17EDF12E03E81FE320E030E84BE32A
:1011600055E460E070E08BEE94E40E94B80668EC11
:1011700070E080E090E00E94B305C0E1D0E00AE0BA
:1011800010E02AE030E040E050E060E070ED82E8FE
:1011900094E40E94F205219791F7C5CE64E0862E73
:1011A000912C70E1A72EB12CC12CD12C1AE0E12E8C
:1011B00017EDF12E03E81FE320E030E041E654E4B0
:1011C00060E070E08FE294E40E94B806F7E08F2EB2
:1011D000912CA2E1AA2EB12CC12CD12C1EEAE12E19
:1011E00017E4F12E01E81FE320E030E842E254E486
:1011F00060E070EC80E694E4F7CE2AE0822E912C39
:101200003AE0A32EB12CC12CD12C18EBE12E1EE11B
:10121000F12E05E81FE320E030E04AEF53E460E000
:1012200070E088EC92E40E94B80664EF71E080E020
:1012300090E00E94B30588248394912C20E030E054
:1012400048EC52E460E070E088EC93E4CDCED8E066
:101250008D2E912C14E1A12EB12CC12CD12C16E68F
:10126000E12EFE2C06E81FE320E030E44CE155E4DB
:1012700060E070E88BEB94E40E94B80699E1A92E37
:10128000B12CC12CD12C20E030E84BEB54E460E0D1
:1012900070E38CE195E4A8CEE3E08E2E912CF8E08B
:1012A000AF2EB12CC12CD12C16E6E12EFE2C06E877
:1012B0001FE320E030E84BEB55E460E070E08AEF9C
:1012C00094E40E94B80662E370E080E090E00E943F
:1012D000B305B2E08B2E912CCDE0AC2EB12CC12CFD
:1012E000D12C20E030E04AEF54E460E078E78BEB6B
:1012F00095E47ACE48E0842E912C5FE0A52EB12CA7
:10130000C12CD12C16E6E12EFE2C06E81FE320E0CE
:1013100030E04AEF54E460E070E88BEB94E40E9424
:10132000B80664E670E080E090E00E94B3057AE0E1
:10133000A72EB12CC12CD12C20E030E44CE155E497
:1013400060E070E88DEE94E44FCE98EC892E912CFD
:1013500024E1A22EB12CC12CD12C1CE5E12E1FE8DA
:10136000F12E02E81FE320E030E447E254E460E0BD
:1013700070E08CE594E438CEF2E08F2E912CA8E05A
:10138000AA2EB12CC12CD12C1AE0E12E17EDF12E92
:1013900003E81FE320E030E844ED54E460E070E04F
:1013A0008AE794E40E94B806C3E08C2E912C18EBD7
:1013B000E12E1EE1F12E05E81FE320E030E04AEFC8
:1013C00053E460E070E684ED94E40E94B8061AE00D
:1013D000812E912C09E0A02EB12CC12CD12C16E627
:1013E000E12EFE2C06E81FE320E030E844ED54E453
:1013F00060E070E08AE794E4F7CD6FE0862E912CF0
:1014000072E0A72EB12CC12CD12C1CE5E12E1FE8D7
:10141000F12E02E81FE320E030E84BE355E460E002
:1014200070E088EC94E4E0CD34E1832E912C42E02E
:10143000A42EB12CC12CD12C1CE5E12E1FE8F12EDD
:1014400002E81FE320E030E84BEB55E460E070E099
:101450008AEF94E4C9CD84E1882E912C92E0A92EE4
:10146000B12CC12CD12C1CE5E12E1FE8F12E02E895
:101470001FE320E030E04AE755E460E070E088ECEC
:1014800094E40E94B80620E030E84BE355E460E0C5
:1014900070E08AE795E4A8CD20916F03260F3327EB
:1014A000331F21323105ECF42091D803FC0190E088
:1014B00080E0243069F082E00895A0916F032191CB
:1014C000AC01415B5C4FA40FB52FB11D2C9301966D
:1014D000861798F380916F03680F60936F0380E025
:1014E000089581E008951092D80381E08093D70396
:1014F0001092B20361E082E10E942F0561E083E176
:101500000E942F05E9EBF0E080818E7F808380814F
:101510008D7F808388E48093B80085E48093BC004D
:101520000895CF93DF9391E090934E038823B9F011
:10153000C091B800D091BA008091BC008A7B8093A2
:10154000BC0060E082E10E942F0560E083E10E9420
:101550002F050E94730AD093BA00C093B800DF91A0
:10156000CF910895CF92DF92EF92FF920F931F9346
:10157000CF93DF93D091010481E0D13208F09CC079
:10158000C09100040E948E056B017C018091D803FC
:1015900081116CC082E08093D80381E08093D703EF
:1015A0008FEF8093D6031092D503D093D403A0EE8F
:1015B000B3E0E4EBF3E080E0D8138DC01092B30306
:1015C0008091B303CC0FC82BC093B3038091B203B7
:1015D000813009F084C01092B2030E948E056B0125
:1015E0007C018091B3038093BB008091DA039091DA
:1015F000DB03A091DC03B091DD03892B8A2B8B2BBD
:10160000A1F00E948E050091DA031091DB03209176
:10161000DC033091DD036C197D098E099F090617E3
:1016200017072807390708F442C08091BC0083FDE2
:10163000D8CF85EC8093BC000E948E056B017C01A5
:101640008091D803823009F44CC08091D6038F3F3B
:1016500009F469C08091D603803209F466C0809194
:10166000D603803309F463C084E026C08091DA0396
:101670009091DB03A091DC03B091DD03892B8A2BD1
:101680008B2B09F483CF0E948E050091DA03109111
:10169000DB032091DC033091DD036C197D098E0999
:1016A0009F09061717072807390708F06FCF8091A1
:1016B000D9030E94910A85E01092DF031092010481
:1016C0001092DE03DF91CF911F910F91FF90EF9069
:1016D000DF90CF9008959D9191938F5F6DCF85EEB0
:1016E000A9CF8091DA039091DB03A091DC03B09144
:1016F000DD03892B8A2B8B2B09F4A2CF0E948E0548
:101700000091DA031091DB032091DC033091DD03BB
:101710006C197D098E099F090617170728073907D5
:1017200008F08ECFC4CF80E0C7CF82E0C5CF83E082
:10173000C3CF0895E091A4038091A303E81730F488
:10174000F0E0E25DFC4F808190E008958FEF9FEF25
:1017500008959091A4038091A3032FEF3FEF981772
:1017600048F4E92FF0E0E25DFC4F208130E09F5F1C
:101770009093A403C90108958091A3039091A403B9
:10178000891B990B0895CF92DF92EF92FF920F93EE
:101790001F93CF93DF937C01CB018A012091DE035D
:1017A000222389F0EB016B01C40ED51ECC15DD059B
:1017B00069F06991D701ED91FC910190F081E02DE4
:1017C000C7010995F3CF642F0E944C0AC801DF912D
:1017D000CF911F910F91FF90EF90DF90CF900895E0
:1017E000CF93DF931F92CDB7DEB769832091DE03DD
:1017F0002223F9F020910104203258F021E030E05A
:10180000FC013383228390E080E00F90DF91CF9141
:1018100008958091DF03E82FF0E0E052FC4F9981BA
:1018200090838F5F8093DF038093010481E090E0D9
:10183000ECCF61E0CE0101960E944C0AF7CFCF9326
:10184000DF938091FA0491E09093DE03809300048B
:101850001092DF031092010460E08FE994E00E948F
:10186000F00BC0EDD4E06A8D8FE994E00E94F00B9C
:101870006B8D8FE994E00E94F00B229684E0C03ECD
:10188000D80789F7DF91CF910C94B20A9091FA04AE
:1018900021E02093DE03909300041092DF03109266
:1018A0000104682F606E8FE994E00E94F00B0C94A5
:1018B000B20ACF92DF92EF92FF92CF93DF93EC01C7
:1018C000603282E07807CCF5653B710514F064EB7B
:1018D00070E0898128E830E0281B310987FD3395C5
:1018E000220F331F220F331F6901330FEE08FF0849
:1018F0008A8128E532E0281B310987FD3395220FC4
:10190000331F220F331F032E000C440B550B2C19D1
:101910003D094E095F09DB0177FF02C0B0E0A0E09E
:101920000E94F52F24EB30E040E050E00E94CB2FE6
:10193000C20ED31EE41EF51EB601E881EC3070F530
:10194000298188E890E0821B910927FD9395880FF3
:10195000991F880F991F681779077CF02A8188E5FD
:1019600092E0821B910927FD9395880F991F880F9C
:10197000991F681779070CF4CB010297880F991FFC
:101980004FB7F8942E2F30E0F901EE0FFF1FE20F52
:10199000F31FE555FB4F928381834FBFDF91CF91BA
:1019A000FF90EF90DF90CF9008951F93CF93DF9338
:1019B000EC019881292F30E0F901EE0FFF1FE20FB3
:1019C000F31FE555FB4F808186FD83C0162F9C30A9
:1019D00008F04EC061E0812F0E945D058881282FAC
:1019E00030E0F901EE0FFF1FE20FF31FE555FB4F4B
:1019F0001F736081607C162B108319821A822CE081
:101A0000622F0E941133829FB001112430E020E048
:101A1000AB01420F531FFA01EE0FFF1FE40FF51F3A
:101A2000E555FB4F908196FD16C02F5F3F4F2C3040
:101A3000310571F781110FC01092800082E0809310
:101A400081001092850010928400B19A80916F00FD
:101A5000826080936F00E8818E2F90E0FC01EE0F92
:101A6000FF1FE80FF91FE555FB4F808180648083DD
:101A70006AE570E0CE010E94590C8EE190E09E8FE5
:101A80008D8F80ED97E098878F8380E090E0A4E8C9
:101A9000B2E4898F9A8FAB8FBC8F8AE198EFA2EC6A
:101AA000BDE38D8B9E8BAF8BB88F1F8E18A219A2B2
:101AB0001AA28DE290E09C838B83198A1A8A1B8A72
:101AC0001C8A19861A861B861C861E821D821FA2EE
:101AD00018A6DF91CF911F9108956091D80670915B
:101AE000D90681ED95E00E94D50C6091DA067091DF
:101AF000DB068AEF95E00E94D50C6091DC067091C0
:101B0000DD0683E296E00E94D50C6091DE067091BE
:101B1000DF068CE496E00C94D50C2F923F924F9206
:101B20005F926F927F928F929F92AF92BF92CF926D
:101B3000DF92EF92FF920F931F93CF93DF9300D02A
:101B400000D0CDB7DEB76C017C836B830E946D0D36
:101B500080910C07811110920C078B819C81089653
:101B60001C019BE0C916D1040CF4BBC00D2C000C69
:101B7000EE08FF08C701B6010E945F3120E030E0A7
:101B800040E251E40E94B5302B013C010B811C81E5
:101B90002CEF822E26E0922E38EEA32E36E0B32EC6
:101BA000F801619171918F01F501819191915F012E
:101BB000681B790B072E000C880B990B0E945F3174
:101BC000A30192010E94B530F40161937193819356
:101BD00091934F010215130519F70E94E605C60EF1
:101BE000D71EE81EF91EC092F406D092F506E092C8
:101BF000F606F092F706CC24C394D12C0E94E60599
:101C00000091F4061091F5062091F6063091F70642
:101C1000601771078207930708F078C00E94E605F5
:101C2000665F7F4F8F4F9F4F6093F8067093F90662
:101C30008093FA069093FB0601ED15E08CEF96E099
:101C40009A83898388EEE82E86E0F82E26010D2CF3
:101C5000000C66087708F701219031907F01E98137
:101C6000FA8181909190A190B190FA83E983C301A8
:101C7000B2010E945F31A50194010E9414324B0110
:101C80005C01B101330C880B990B0E945F319B0101
:101C9000AC01C501B4010E9444300E942731F80113
:101CA00027853089620F731FC8010E94590C075D98
:101CB0001F4FF0EFEF16F6E0FF0669F60E94E6050B
:101CC0000091F8061091F9062091FA063091FB0672
:101CD000601771078207930788F38FEFC81AD80A35
:101CE0008DCFEB80FC8001ED15E0F70161917191E2
:101CF0007F01F80187859089680F791FC8010E94CC
:101D0000590C075D1F4FE214F30479F7EB81FC8156
:101D1000808191819093E9068093E8068281938186
:101D20009093EB068093EA06848195819093ED066B
:101D30008093EC06868197819093EF068093EE0660
:101D40000F900F900F900F90DF91CF911F910F91F7
:101D5000FF90EF90DF90CF90BF90AF909F908F90CB
:101D60007F906F905F904F903F902F900895EF92EB
:101D7000FF920F931F93CF93DF93CDB7DEB7A0975A
:101D80000FB6F894DEBF0FBECDBF28E0E4E0F1E06F
:101D9000DE01599601900D922A95E1F728E0ECE0DA
:101DA000F1E0DE01519601900D922A95E1F728E0CD
:101DB000E4E1F1E0DE01199601900D922A95E1F738
:101DC00028E0ECE1F1E0DE01119601900D922A95F8
:101DD000E1F76F3F7F4FA1F421E930E03E8F2D8F77
:101DE0002AE730E038A32F8F4CE350E05E8B4D8B19
:101DF000388F2F8B48E750E05E874D87388B2F87D1
:101E00008C01085E1340003981E0180714F400E9E2
:101E100011E0BE01675E7F4F84EF91E00E948D0D5F
:101E2000BE016F5E7F4F84EF91E00E948D0D7801BF
:101E3000F594E794F594E794BE01675F7F4FC7017F
:101E40000E948D0DBE016F5E7F4FC7010E948D0DF8
:101E5000BE01675F7F4FC7010E948D0DBE016F5E9F
:101E60007F4FC7010E948D0DBE016F5F7F4F84EFD2
:101E700091E00E948D0DB801110F880B990B0E9403
:101E8000B305A0960FB6F894DEBF0FBECDBFDF91AD
:101E9000CF911F910F91FF90EF9008950F931F9393
:101EA000CF93DF93CDB7DEB760970FB6F894DEBF60
:101EB0000FBECDBF8C0188E0E4E2F1E0DE011996AF
:101EC00001900D928A95E1F7BE01675F7F4FC801CF
:101ED0000E948D0D88E0ECE1F1E0DE0111960190A9
:101EE0000D928A95E1F7BE016F5F7F4FC8010E9496
:101EF0008D0D60960FB6F894DEBF0FBECDBFDF919B
:101F0000CF911F910F9108950F931F93CF93DF935C
:101F1000CDB7DEB768970FB6F894DEBF0FBECDBF62
:101F20008C0188E0ECE2F1E0DE01519601900D9227
:101F30008A95E1F788E0E4E3F1E0DE01199601908B
:101F40000D928A95E1F788E0ECE1F1E0DE0111966F
:101F500001900D928A95E1F76F3F7F4F71F481E90F
:101F600090E09E8B8D8B88E790E0988F8F8B2BE491
:101F700030E03E872D87988B8F87BE016F5E7F4F45
:101F800080E991E00E948D0DBE01675F7F4F80E97F
:101F900091E00E948D0DB801110F880B990B0E94E2
:101FA0005F312DEC3CEC4CE45FE30E9414320E9464
:101FB0002E310E94B305BE016F5F7F4F84EF91E029
:101FC0000E948D0D68960FB6F894DEBF0FBECDBF90
:101FD000DF91CF911F910F91089520919D03309132
:101FE0009E032817390771F490919B0380919C03FD
:101FF000981741F0E0919B03F0E0E351FD4F8081A1
:1020000090E008958FEF9FEF0895EF92FF920F9366
:102010001F93CF93DF93DC015C96ED90FC905D976E
:10202000E114F10479F481E090E013969C938E938F
:10203000129790E080E0DF91CF911F910F91FF9078
:10204000EF9008955196ED91FC91529750968C9196
:102050005097982F90950FB75E962C915E97122F00
:10206000127021FD6095F8942081112319F1282B1D
:102070002083E7012197F1F728E0462F50E03081D7
:1020800060FF1AC0382B3083E7012197F1F7BA01BE
:1020900075956795215089F7112381F080818923F7
:1020A00080830FBF5C968D919C910197F1F781E041
:1020B00090E0C1CF2923DCCF3923E5CF9081892B54
:1020C000EFCF20919D0330919E032817390771F4BB
:1020D00080919C0320919B0390E0805C9F4F821B2A
:1020E000910960E470E00E943133089590E080E04F
:1020F000089520919D0330919E0328173907B9F464
:1021000090919B0380919C03981789F0E0919B0329
:10211000F0E0E351FD4F808120919B0330E02F5F81
:102120003F4F2F73332720939B0390E008958FEF49
:102130009FEF0895DC01EC918E2F90E0FC01EE0FF3
:10214000FF1FE80FF91FE555FB4F808186FF02C096
:102150008F7B8083089581ED95E00E949A108AEF2D
:1021600095E00E949A1083E296E00E949A108CE417
:1021700096E00C949A10CF93DF93CDB7DEB72897F3
:102180000FB6F894DEBF0FBECDBF80910C07811152
:1021900015C088E0ECE1F1E0DE01119601900D92AE
:1021A0008A95E1F7BE016F5F7F4F84EF91E00E9457
:1021B0008D0D0E94AB1081E080930C0728960FB61E
:1021C000F894DEBF0FBECDBFDF91CF910895DC0143
:1021D0005596EC91E23059F0E33081F1E1110DC0F8
:1021E000E7E0F0E0E61BF70BBA01AF0106C0EFE055
:1021F000F0E0E41BF50BAB01BF0148305105E8F4FA
:1022000060317105D0F4440F551FDC01A40FB51FD8
:102210005A968D919C915B97E1E0F0E0AF0102C08E
:10222000440F551F6A95E2F7BA01232BA1F0682BE2
:10223000792B5B967C936E935A970895EFE0F0E0CC
:10224000DF01A61BB70BBD01E7E0F0E0DF01A41B37
:10225000B50BAD01D2CF6095709568237923E9CF96
:10226000DF92EF92FF920F931F93CF93DF937C0146
:1022700010E000E0D0E0C0E0DD0C209711F4F701A1
:10228000D490D7FE08C021E030E0A801BE0180ED67
:1022900094E00E94E7102196C830D10569F70F5FDE
:1022A0001F4FFFEFEF1AFF0A0031110519F7DF91F9
:1022B000CF911F910F91FF90EF90DF9008950895B7
:1022C0002F923F924F925F926F927F928F929F9246
:1022D000AF92BF92CF92DF92EF92FF920F931F9334
:1022E000CF93DF93CDB7DEB769970FB6F894DEBF13
:1022F0000FBECDBF998F888F5A8349831C830B8370
:10230000F886EF82FC01408D518D4115510509F091
:10231000B9C080859185681779070CF074C08285F3
:10232000938549815A81481759070CF06CC0AC2C31
:10233000B12CCB0156E0C59E800D911D11241816BD
:1023400019060CF060C0C50133E0880F991F3A955B
:10235000E1F7A981BA818A0F9B1F181619060CF0A4
:1023600052C08789811103C0203B08F02F5F3B01D9
:102370004B01D12C86E591E0861B970BFC0135E0E3
:10238000239FE00DF11D1124FC87EB8745E0E0E081
:10239000D41629F0EB85FC85E80DF91DE491298020
:1023A0003A80512C412C6E2F70E07E836D83E0FFCC
:1023B00050C0A88DB98DED91FC91B1E0CB123CC01D
:1023C0000084F185E02D2B813C8149815A81440DA7
:1023D000551DB401888D998D0995ED81FE81F59586
:1023E000E795FFEF4F1A5F0A2A0C3B1C28E04216C4
:1023F0005104C9F63FEF831A930A6A0C7B1CD394ED
:1024000046E0D412C3CF69960FB6F894DEBF0FBE74
:10241000CDBFDF91CF911F910F91FF90EF90DF9093
:10242000CF90BF90AF909F908F907F906F905F9074
:102430004F903F902F9008950288F389E02DEB8014
:10244000FC8085019501A101B301888D998D0995C5
:10245000C4CFEB81FC812F813885E217F30709F4A3
:10246000BCCFA88DB98DED91FC91B1E0CB1204C029
:102470000084F185E02DA9CF0288F389E02DEF805B
:10248000F884DFCFFA013496349132978591949194
:10249000231BE7E02E9F800D911D1124FA01259149
:1024A00034913F872E87FC0125903490FC013296B1
:1024B0009490319634913D873196E491FC013596A4
:1024C00024910696FC018491F1E0FC1550F4A22FB2
:1024D000022E000CBB0B482F082E000C550B5A8700
:1024E0004987AC2CB12CAA9DA001AB9D500DBA9D83
:1024F000500D1124DA01A60FB71FB887AF83812CC6
:10250000D12CBB8AAA8AE981FA81E80FF11D87FDE7
:10251000FA95FD8BEC8BAB01420F511D27FD5A95AF
:102520005F8B4E8B5D85D51608F06DCF8D2D90E0BD
:1025300049855A85480F591F6A897B89469F9001B2
:10254000479F300D569F300D1124A981BA81A20FEB
:10255000B31FBC87AB874F805884712C612CEC89EA
:10256000FD89E80FF91FF98BE88B882D860D69141A
:10257000D0F5877049F4C1010196EE85FF85E20D23
:10258000F31D24912D831C013D8137FF15C0A88DBB
:10259000B98DED91FC91B1E0CB1217C00084F185AB
:1025A000E02D2B813C81488959896E897F89660D90
:1025B000771D888D998D0995ED81EE0FED83FFEFE5
:1025C0006F1A7F0A4A0C5B1CD0CF0288F389E02D7A
:1025D000EB80FC80850195014B855C85B201888D7F
:1025E000998D0995E9CF890CD3949CCFAF92BF9276
:1025F000CF92EF92FF920F931F93CF93DF93EC0153
:10260000262F888D998D009709F04FC06A30C9F444
:102610008C8948E0849F900111248E859F85820FCC
:10262000931F9F878E871D861C8681E090E0DF9137
:10263000CF911F910F91FF90EF90CF90BF90AF90EF
:1026400008956D3091F3CC888E898823C1F08C85F4
:102650009D85E6E0CE9E800D911D1124488559850B
:102660008417950764F04E855F851D861C86F8E00B
:10267000CF9EC0011124840F951F9F878E87EA8803
:10268000FB88088919894E855F856C857D85CE011B
:102690000E9460112C898C859D8536E0239F800DDA
:1026A000911D11249D878C87C0CF6A3079F41D86D7
:1026B0001C86FC013696E4912C898E859F85E29FCD
:1026C000800D911D11249F878E87AFCF6D3009F447
:1026D000ACCFAC014C5F5F4FFA013491631708F443
:1026E000A4CF3196E491E61708F49FCFFA01449104
:1026F0003297A590B490362F341BF7E03F9FA00C83
:10270000B11C1124F501329634913196E4913323B2
:10271000A1F1EE2391F1CC88F5013596E4914E8933
:10272000442301F10E2E000CFF0BE30FF11DCE9E92
:10273000A001CF9E500D11246C857D85460F571F3B
:1027400068857985461757076CF04E855F851D862D
:102750001C860696FC018491C89E400D511D1124D3
:102760005F874E87EA88FB88088919894E855F85CF
:102770006C857D85CE010E946011F5013496E4914F
:102780002C898C859D85E29F800D911D11248ACF17
:10279000EF92FF920F931F93DC011A960D911C91FB
:1027A0001B9718962D913C911997ED91FC910288F9
:1027B000F389E02D7B0150E040E070E060E0099596
:1027C0001F910F91FF90EF9008956F927F928F92DB
:1027D0009F92AF92BF92CF92DF92EF92FF920F93B0
:1027E0001F93CF93DF936C015A014801EB013B012A
:1027F000620E731EC615D70574F4D601ED91FC91D7
:102800000484F585E02D87019401A501BE01C60170
:1028100009952196EFCFDF91CF911F910F91FF90F6
:10282000EF90DF90CF90BF90AF909F908F907F9070
:102830006F900895EF92FF920F931F93260F371F0B
:1028400021503109DC01ED91FC910284F385E02DEA
:1028500078018A0109951F910F91FF90EF900895DB
:10286000EF92FF920F931F93240F351F21503109D0
:10287000DC01ED91FC910284F385E02D7801890162
:102880009B0109951F910F91FF90EF9008956F9212
:102890007F928F929F92AF92BF92CF92DF92EF92F0
:1028A000FF920F931F93CF93DF93EC016B015A01BB
:1028B00039014801E881F9810684F785E02D870117
:1028C0000995A501480D591D41505109E881F9812B
:1028D0000684F785E02D9301B601CE010995E881C4
:1028E000F9810484F585E02D9401A501B601CE019E
:1028F0000995C60CD71CB60161507109E881F981B0
:102900000484F585E02D9401A501CE010995DF91A0
:10291000CF911F910F91FF90EF90DF90CF90BF90DC
:10292000AF909F908F907F906F9008952F923F92DD
:102930004F925F926F927F928F929F92AF92BF92CF
:10294000CF92DF92EF92FF920F931F93CF93DF937B
:1029500000D000D000D0CDB7DEB73C016A013E8385
:102960002D83FC82EB825801A41AB50AB7FE03C07E
:10297000B194A194B1088D809E80861A970A97FE23
:1029800003C09194819491088A149B045CF0902F69
:10299000812F0D811E819D838E839C2D8D2D6B013A
:1029A000692F782F0C151D055CF09D818E817E832B
:1029B0006D83692F782F902F812F8601C92ED82EF5
:1029C0001601201A310A2B012D813E81421A530A29
:1029D00057FE03C0519441945108710137FE03C062
:1029E0003FEFE31AF30AF594E7948D819E818617F1
:1029F00097075CF5A1E0B0E0BA83A983C016D106C1
:102A00004CF1D301ED91FC910084F185E02D2B81F7
:102A10003C81A8016D817E818A149B041CF04D814C
:102A20005E81B801C3010995E418F508F7FE0AC0F4
:102A30002D813E8189819A81280F391F3E832D8304
:102A4000E20CF31C0F5F1F4FD9CF2FEF3FEF3A83FC
:102A50002983D4CF26960FB6F894DEBF0FBECDBF24
:102A6000DF91CF911F910F91FF90EF90DF90CF906A
:102A7000BF90AF909F908F907F906F905F904F909E
:102A80003F902F900895089590E080E008954F9230
:102A90005F926F927F928F929F92AF92BF92CF92EE
:102AA000DF92EF92FF920F931F93CF93DF936A0110
:102AB000270138018B014C0159017B0188E0E80EA8
:102AC000F11CC0EDD5E0F801819191918F019F83B8
:102AD0008E83F401819191914F019D838C83D986DE
:102AE000C8866E8D7F8DC6010E941D3390E080E008
:102AF0000E945D319B01AC012A8F3B8F4C8F5D8F13
:102B00006BED7FE089EC90E40E94B5306E8B7F8B9B
:102B1000888F998FF50181919191A191B1915F0178
:102B20008A879B87AC87BD87A9960E151F0559F626
:102B30000E94E6050E945D314B015C01B601DD0C8F
:102B4000880B990B0E945F31A30192010E941432FD
:102B5000A50194010E9444306B017C01A501940100
:102B6000C701B6010E940F3287FD92C0C0EDD5E0CB
:102B70000E94E6056CA37DA38EA39FA308A119A1C3
:102B80002AA13BA14B015C01801A910AA20AB30A57
:102B90000E8D1F8D30E020E0081519052A053B0534
:102BA0000CF064C068A379A38AA39BA388A58111B4
:102BB0004FC02A853B854C855D856A897B898C89D8
:102BC0009D890E9444300E9481324B015C016C81DE
:102BD0007D8190E080E00E945D31A50194010E941A
:102BE00014324B015C016E817F8190E080E00E9495
:102BF0005D319B01AC01C501B4010E9444304B0121
:102C00005C0120E030E0A9010E940F3220E030E0BA
:102C100040E05FE387FD37C0C501B4010E94443046
:102C20000E9427317F876E8789A5882329F07195B7
:102C3000619571097F876E876E857F85665A7F4FA4
:102C400088899989680F791FCE0101960E94590CD5
:102C50002E893F89488D598D6A897B898C899D8908
:102C60000E9444306A8B7B8B8C8B9D8BA996F6E0FF
:102C7000C437DF0709F07CCF0E94E6050E945D3172
:102C80004B015C016BCFC501B4010E944330C8CF3A
:102C9000DF91CF911F910F91FF90EF90DF90CF9038
:102CA000BF90AF909F908F907F906F905F904F906C
:102CB00008952F923F924F925F926F927F928F92E0
:102CC0009F92AF92BF92CF92DF92EF92FF920F93BB
:102CD0001F93CF93DF93CDB7DEB728970FB6F89445
:102CE000DEBF0FBECDBF9A8389837C836B835E83F7
:102CF0004D831901270138010E946D0D80910C0749
:102D0000811110920C07C301B2010E9427314B01BF
:102D10006B0116161706BCF418861F82E12CF12CE5
:102D200000E81FE391014D815E816B817C81898187
:102D30009A810E9447158F819885019698878F8385
:102D4000C816D90659F7B401990C880B990B0E9443
:102D50005F319B01AC01C301B2010E9443307B0192
:102D60008C0191014D815E816B817C8189819A8189
:102D70000E94471528960FB6F894DEBF0FBECDBF50
:102D8000DF91CF911F910F91FF90EF90DF90CF9047
:102D9000BF90AF909F908F907F906F905F904F907B
:102DA0003F902F900895EF92FF920F931F93CF9330
:102DB000DF93CDB7DEB7A0970FB6F894DEBF0FBE96
:102DC000CDBF7B018C01198E1A8E1B8E1C8E3E8FFF
:102DD0002D8F38A32F8F198A1A8A1B8A1C8AC90142
:102DE00037FD0196959587959E8B8D8B37FF02C099
:102DF0002F5F3F4F35952795319521953109388FB4
:102E00002F8B9E012F5F3F4F80E1F90111928A9530
:102E1000E9F7BE016F5E7F4FCE0149960E945916B9
:102E2000A0960FB6F894DEBF0FBECDBFDF91CF9155
:102E30001F910F91FF90EF900895EF92FF920F93E3
:102E40001F93CF93DF93CDB7DEB7A0970FB6F8945B
:102E5000DEBF0FBECDBF198E1A8E1B8E1C8E7E8FCD
:102E60006D8F78A36F8F198A1A8A1B8A1C8A7E8BB2
:102E70006D8B719561957109788F6F8B9E012F5FB6
:102E80003F4F40E1F90111924A95E9F7E12CF12C0D
:102E900000E81FE3AC01BE016F5E7F4FCE01499693
:102EA0000E945916A0960FB6F894DEBF0FBECDBF94
:102EB000DF91CF911F910F91FF90EF9008958F9226
:102EC0009F92AF92BF92CF92DF92EF92FF920F93B9
:102ED0001F93CF93DF93CDB7DEB7A0970FB6F894CB
:102EE000DEBF0FBECDBF4B015C016A0189E190E0FE
:102EF0009A8F898F9C8F8B8F3E8F2D8F38A32F8F2A
:102F0000198A1A8A1B8A1C8AC90137FD0196959570
:102F1000879504969E8B8D8B37FF02C02F5F3F4FA6
:102F20003595279531952195310924503109388FF0
:102F30002F8B19861A861B861C8680E090E0A4EBF6
:102F4000B2E489839A83AB83BC838D839E83AF83F2
:102F5000B88724EC2003B001219F700D1124072EA7
:102F6000000C880B990B0E945F312BED3FE049E488
:102F700050E40E94143220E030E044E353E40E9425
:102F8000B5306D877E878F87988B850174019E0190
:102F90002F5F3F4FA601BE016F5E7F4FCE01499666
:102FA0000E945916A0960FB6F894DEBF0FBECDBF93
:102FB000DF91CF911F910F91FF90EF90DF90CF9015
:102FC000BF90AF909F908F900895CF92DF92EF9235
:102FD000FF920F931F93CF93DF93CDB7DEB7A097E8
:102FE0000FB6F894DEBF0FBECDBF6C018A018CE036
:102FF00090E09A8F898F9C8F8B8F7E8F6D8F78A3B7
:103000006F8F198A1A8A1B8A1C8ACB010A979E8B9A
:103010008D8B8AE090E0861B970B988F8F8B19829F
:103020001A821B821C828BED9FE0A9E4B0E48D83A1
:103030009E83AF83B88726EA2403B001259F700DD5
:103040001124072E000C880B990B0E945F312BED89
:103050003FE049E450E40E94143220E030E044E3D1
:1030600053E40E94B53069877A878B879C878AE50D
:10307000809FB001819F700D1124072E000C880BDA
:10308000990B0E945F312BED3FE049E450E40E9430
:10309000143220E030E044E353E40E94B5306D8701
:1030A0007E878F87988BE12CF12C00E81FE39E012F
:1030B0002F5F3F4FA601BE016F5E7F4FCE01499645
:1030C0000E945916A0960FB6F894DEBF0FBECDBF72
:1030D000DF91CF911F910F91FF90EF90DF90CF90F4
:1030E0000895AF92BF92CF92DF92EF92FF920F932B
:1030F0001F93CF93DF93CDB7DEB7A0970FB6F894A9
:10310000DEBF0FBECDBF6C018A01198E1A8E1B8ED9
:103110001C8E7E8F6D8F78A36F8F198A1A8A1B8AF7
:103120001C8ACB0177FD01969595879502969E8B1B
:103130008D8B77FF02C06F5F7F4F75956795719597
:103140006195710962507109788F6F8B26EA2003AF
:103150007001219FF00C1124CE0101965C0188E0E2
:10316000F50111928A95E9F7B7010F2C000C880B35
:10317000990B0E945F312BED3FE049E450E40E943F
:10318000143220E030E044E353E40E94B530698714
:103190007A878B879C8724EC2003B001219F700DD8
:1031A00011246E0D7F1D072E000C880B990B0E94B9
:1031B0005F312BED3FE049E450E40E94143220E0FF
:1031C00030E044E353E40E94B5306D877E878F87FB
:1031D000988BE12CF12C00E81FE39501A601BE01BC
:1031E0006F5E7F4FCE0149960E945916A0960FB68A
:1031F000F894DEBF0FBECDBFDF91CF911F910F912D
:10320000FF90EF90DF90CF90BF90AF900895EF9236
:10321000FF920F931F93CF93DF93CDB7DEB7A097A5
:103220000FB6F894DEBF0FBECDBFAC0198E0ECE363
:10323000F1E0DE01599601900D929A95E1F798E040
:10324000E4E4F1E0DE01519601900D929A95E1F7E8
:1032500090E1ECE4F1E0DE01119601900D929A9577
:10326000E1F78AE090E061307105E9F49C8F8B8F83
:10327000E12CF12C00E81FE39E012F5F3F4FBE01C0
:103280006F5E7F4FCE0149960E945916A0960FB6E9
:10329000F894DEBF0FBECDBFDF91CF911F910F918C
:1032A000FF90EF9008959A8F898FE2CFAF92BF92EF
:1032B000CF92DF92EF92FF920F931F93CF93DF9302
:1032C000CDB7DEB7A0970FB6F894DEBF0FBECDBF67
:1032D0005C0188E0ECE3F1E0DE01599601900D928B
:1032E0008A95E1F788E0E4E4F1E0DE01519601908F
:1032F0000D928A95E1F7CE0101966C0188E0F60106
:1033000011928A95E9F726EA2603C001279F900DBE
:103310001124BC01990F880B990B0E945F312BED92
:103320003FE049E450E40E94143220E030E044E3FE
:1033300053E40E94B53069877A878B879C876D87B5
:103340007E878F87988BE12CF12C00E81FE3960194
:10335000A501BE016F5E7F4FCE0149960E945916AE
:10336000A0960FB6F894DEBF0FBECDBFDF91CF9110
:103370001F910F91FF90EF90DF90CF90BF90AF9093
:10338000089543E855E06EE775E090E080E00C9426
:10339000512FFB0101900020E9F73197AF01461B47
:1033A000570BDC01ED91FC910280F381E02D099433
:1033B0008F929F92AF92BF920F931F93CF93DF9301
:1033C000CDB7DEB7A1970FB6F894DEBF0FBECDBF65
:1033D00019A2423008F44AE08E010F5D1F4F842E7F
:1033E000912CB12CA12CA50194010E94A92FE62FAC
:1033F000B901CA01EA3004F5E05DD801EE938D0110
:10340000232B242B252B79F790E080E0109729F0CF
:10341000BD0182E094E00E94C919A1960FB6F8940C
:10342000DEBF0FBECDBFDF91CF911F910F91BF9037
:10343000AF909F908F900895E95CDFCF0F931F931B
:10344000CF93DF938C01D0E0C0E06115710519F0D6
:103450000E94C919EC016EED71E0C8010E94C91902
:103460008C0F9D1FDF91CF911F910F9108950F93A6
:103470001F93CF93DF93EC010E94AC038C016EEDA0
:1034800071E0CE010E94C919800F911FDF91CF9189
:103490001F910F9108956EE170E080E090E00E942E
:1034A000B30563E571E082E094E00E94AC0361E55E
:1034B00071E082E094E00E94AC036EE471E082E08F
:1034C00094E00E94371A82E094E00C94BD04EF92DD
:1034D000FF920F931F93CF93DF93CDB7DEB7A097E3
:1034E0000FB6F894DEBF0FBECDBF8531910520F534
:1034F000FC01E358F54E0C944533921AA91AB21AFE
:10350000B51ABE1AC11AF01AFD1A041B131B241B8C
:103510002F1B361B431B4A1B551B5E1B611B6A1B63
:103520006D1B9F1B0E94BB100E944B1A61EE71E045
:1035300081EB95E00E941E1AA0960FB6F894DEBFAC
:103540000FBECDBFDF91CF911F910F91FF90EF90F4
:10355000089561E070E080910201909103010E9462
:103560005619E2CF6FEF7FEFF6CF61E070E0809108
:103570000201909103010E940719D6CF6FEF7FEFF0
:10358000F6CF80910001909101014091020150918C
:103590000301198E1A8E1B8E1C8E9E8F8D8F98A301
:1035A0008F8F198A1A8A1B8A1C8A9E8B8D8B919504
:1035B00081959109988F8F8B80E1ECE5F1E0DE0138
:1035C000119601900D928A95E1F7E12CF12C00E81B
:1035D0001FE39E012F5F3F4FBE016F5E7F4FAAC06A
:1035E000609100017091010141E050E08091020181
:1035F000909103010E94711897CF60910001709122
:1036000001014FEF5FEFF2CF2091000130910101F6
:10361000409102015091030160E070E080E89FE377
:103620000E94D31681CF2091000130910101409179
:1036300002015091030101E010E060E070E080E8D9
:103640009FE30E945F1770CF20910001309101012C
:1036500040910201509103010FEF1FEFEECF8091D7
:103660000201909103010E944E0F5ECF6091000114
:103670007091010141E050E08091020190910301BD
:103680000E94E51751CF60910001709101014FEF49
:103690005FEFF2CF60910001709101018091020112
:1036A000909103010E941D173FCF61E070E080916F
:1036B0000201909103010E94840F36CF6FEF7FEFDC
:1036C000F6CF61E070E080910201909103010E94C9
:1036D000B70E2ACF6FEF7FEFF6CF409102015091E6
:1036E000030180910001909101018A31910514F04C
:1036F00089E190E01D8E1E8E1F8E18A29A8F898FF1
:103700009C8F8B8FBE016F5E7F4F88E0FB01119213
:103710008A95E9F780E1ECE6F1E0DE01119601908F
:103720000D928A95E1F7E12CF12C00E81FE39E0150
:103730002F5F3F4FCE0149960E945916F5CE40911A
:1037400002015091030180910001909101018E309E
:10375000910514F08DE090E09A8F898F9C8F8B8F6C
:103760009E8F8D8F98A38F8F198A1A8A1B8A1C8A25
:103770009C012C5F3F4F3E8B2D8B24E030E0281BBB
:10378000390B388F2F8B80E1ECE7F1E018CF6EE139
:1037900070E080E090E00E94B3056BE471E082E0AD
:1037A00094E00E94AC0369E471E082E094E00E943E
:1037B000AC0366E471E082E094E00E94371A82E094
:1037C00094E00C94BD040E94C71B0E94BB100C9493
:1037D0004B1A0E94C71B0E94BB100E94C119009780
:1037E000F1F00E942A2F019783319105F0F4FC013A
:1037F000E450F44E0C944533171C1C1C1F1C221C57
:10380000251C281C2B1C2E1C311C341C371C3A1C5C
:103810003D1C401C431C461C491C4C1C4F1C60EDAD
:1038200077E080E090E00E94B3050C944B1A90E0A2
:1038300080E00E944807F9CF81E090E0FACF86E06F
:1038400090E0F7CF87E090E0F4CF88E090E0F1CF10
:1038500089E090E0EECF8AE090E0EBCF8BE090E063
:10386000E8CF8CE090E0E5CF8DE090E0E2CF8EE015
:1038700090E0DFCF8FE090E0DCCF80E190E0D9CF27
:1038800081E190E0D6CF82E190E0D3CF83E090E079
:10389000D0CF84E090E0CDCF85E090E0CACF82E049
:1038A00090E0C7CF2F923F924F925F926F927F929C
:1038B0008F929F92AF92BF92CF92DF92EF92FF9240
:1038C0000F931F93CF93DF93CDB7DEB72A970FB631
:1038D000F894DEBF0FBECDBF0E94C71B0E94BB1075
:1038E0000E94C1190097C1F00E942A2F01978D30C4
:1038F0009105C0F4FC01E158F34E0C944533B31C20
:10390000DC1CF91C651DDE1D5F1E871EA61E571FD1
:10391000A41F1C20E8205E2160ED77E080E090E0AD
:103920000E94B3050E944B1A67EE71E081EB95E0AF
:103930000E941E1A2A960FB6F894DEBF0FBECDBFA6
:10394000DF91CF911F910F91FF90EF90DF90CF907B
:10395000BF90AF909F908F907F906F905F904F90AF
:103960003F902F9008950E94970386E391E00E9474
:1039700030110E941F0C0EE110E022E330E040E025
:1039800050E064EA70ED84E294E40E94F2058DE078
:1039900090E00E94480724E130E040E253E060E01C
:1039A00070E080E89FE30E94D3168DE090E00E94D3
:1039B00048070E94BB107AC10E94970386E391E0FA
:1039C0000E9430110E941F0C8BE090E00E9448077B
:1039D00064E170E084EF91E00E941D178CE090E0BC
:1039E0000E94480764E170E084EF91E00E941D1797
:1039F000E0CF0E94970386E291E00E9430110E947E
:103A00001F0C8EE690E09A83898386E490E09C8385
:103A10008B8384E190E09E838D8380EA90E0988799
:103A20008F83BE016F5F7F4F8CEB92E00E948D0D04
:103A3000E8EC8E2E912CF4E1AF2EB12CC12CD12CC0
:103A40001CE5E12E1FE8F12E02E81FE320E030E83C
:103A50004FE454E460E070E08CE594E40E94B80622
:103A600020E030E845E454E460E070E88FE494E45A
:103A70000E94B80620E030E049E354E460E070E8DA
:103A800085E494E40E94B80620E030E04FE254E47C
:103A900060E070E089E394E40E94B80620E030E43E
:103AA00047E254E460E070E08FE294E40E94B806DC
:103AB00064EF71E080E090E00E94B3050E94BB10CB
:103AC0006CE271E080E090E0EFC00E94970386E135
:103AD00091E00E9430110E941F0C84E690E09A83CE
:103AE000898380E590E09C838B838CE390E09E83C8
:103AF0008D8388E790E098878F83BE016F5F7F4F4B
:103B00008CEB92E00E948D0D74E0672E712C3AE0F0
:103B1000832E912C4AE0A42EB12CC12CD12C18EB71
:103B2000E12E1EE1F12E05E81FE320E030E048E43D
:103B300053E460E070E088EC92E40E94B80620E074
:103B400030E046E953E460E070E088E493E40E94EA
:103B5000B80620E030E04AEF53E460E070E086E928
:103B600093E40E94B80664EF71E080E090E00E9468
:103B7000B30588248394912C20E030E04AE753E495
:103B800060E070E088EC93E40E94B80620E030E04A
:103B900048EC52E460E070E08AE793E40E94B806E3
:103BA00064EF71E080E090E00E94B30581E0681A64
:103BB000710809F0ACCF89E090E0F9CE0E9497033C
:103BC00086E091E00E9430110E941F0C0AE510E08F
:103BD0001A8309831C830B8381E9482E512C5E8252
:103BE0004D829AE7292E312C38862F82BE016F5FD5
:103BF0007F4F84EF91E00E948D0D6CE271E080E0D8
:103C000090E00E94B30580E190E00E9448076AEFCF
:103C100070E080E090E00E94B3051A8309831C8362
:103C20000B8320E5622E712C7E826D8238862F8276
:103C3000BE016F5F7F4F84EF91E00E948D0D6CE2BB
:103C400071E080E090E00E94B30581E190E00E9485
:103C500048076AEF70E080E090E00E94B3051A83A5
:103C600009831C830B835E824D8278866F82BE013E
:103C70006F5F7F4F84EF91E00E948D0D6CE271E0E9
:103C800080E090E00E94B30582E190E00E94480746
:103C90006CE271E080E090E00E94B3050E94BB10EE
:103CA00064EF71E080E090E00E94B3050E9497030A
:103CB00080E796E00E9430110E941F0C33CE0E94D4
:103CC000970386EF90E00E9430110E941F0C8EE651
:103CD00090E09A83898386E490E09C838B838AE5D5
:103CE00090E09E838D8398878F83BE016F5F7F4FA7
:103CF0008CE291E00E948D0D8FE090E00E944807D9
:103D000064EF71E080E090E00E94B30552CE0E9423
:103D1000970386EE90E00E9430110E941F0C89E00C
:103D200090E00E94480701E010E02FE030E04CED09
:103D300055E060E070E080E090E40E945F170E9430
:103D4000BB108DE090E00E944807B0CF0E9497031F
:103D500086ED90E00E9430110E941F0C2AE5622E31
:103D6000712C7A8269827C826B8236E4232E312C1C
:103D70003E822D824EE6442E512C58864F82BE0143
:103D80006F5F7F4F8CE291E00E948D0D0EE110E09D
:103D900024E630E040E050E060E070E08CE594E440
:103DA0000E94F20554E0852E912C67E0A62EB12CDE
:103DB000C12CD12C1CE5E12E1FE8F12E02E81FE3F7
:103DC0002FE135ED42E954E460E070E08CE594E4E5
:103DD0000E94B80688248394912CFAE0AF2EB12C6F
:103DE000C12CD12C2CE53FEF43EC54E46FE175ED91
:103DF00082E994E40E94B80620E030E04CE554E407
:103E00006CE57FEF83EC94E40E94B8066FE070E00D
:103E100080E090E00E94B305A4E08A2E912CB4E1EA
:103E2000AB2EB12CC12CD12C24EA30ED44E254E469
:103E300060E070E08CE594E40E94B80660E971E00F
:103E400080E090E00E94B3055A8249825C824B82F6
:103E50007E826D8278866F82BE016F5F7F4F88ECB5
:103E600090E00E948D0D2FE135ED42E954E460E0D1
:103E700070E08CE594E40E94B8063A8229823C8284
:103E80002B827E826D8278866F82BE016F5F7F4F4C
:103E900088EC90E00E948D0D24EA30ED44E254E479
:103EA00060E070E08CE594E40E94B80682CD0E9448
:103EB000970386EC90E00E9430110E941F0CF4E002
:103EC0008F2E912CA4E1AA2EB12CC12CD12C1CE553
:103ED000E12E1FE8F12E02E81FE32FE135ED42E964
:103EE00054E460E070E08CE594E40E94B80624EAB3
:103EF00030ED44E254E460E070E08CE594E40E942C
:103F0000B8066CE271E080E090E00E94B30504E046
:103F100010E08AE5682E712C9EE6E92EF12C7A825B
:103F200069827C826B827E826D82F886EF82BE011E
:103F30006F5F7F4F84E690E00E948D0D0E94BB1062
:103F40000150110961F7DCCE0E94970386EB90E0E7
:103F50000E9430110E941F0C84E090E09A878987AC
:103F600060E971E03B0194E6690E711C072E000CBC
:103F7000880B990B0E945F311B012C01B301072CA8
:103F8000000C880B990B0E945F319B01AC016AE029
:103F9000862E912C7AE0A72EB12CC12CD12C18EBB7
:103FA000E12E1EE1F12E05E81FE3C201B1010E94DE
:103FB000B806B30188EE681683E0780699F620E02B
:103FC00030E849E854E4C201B1010E94B806B301E7
:103FD0006C597F4F072E000C880B990B0E945F31A4
:103FE0001B012C01B301072C000C880B990B0E94BC
:103FF0005F311AE0812E912C0AE0A02EB12CC12C49
:10400000D12C18EBE12E1EE1F12E05E81FE3A201F1
:1040100091010E94B80694E6691A710880E9681651
:1040200081E07806A1F689859A8501979A87898724
:10403000892B09F095CF44CD0E94970386EA90E042
:104040000E9430110E941F0C82E090E09A878987BD
:10405000B4EF6B2E77247394B3016C597F4F072E06
:10406000000C880B990B0E945F311B012C01B301DE
:10407000072C000C880B990B0E945F31EAE08E2E12
:10408000912CFAE0AF2EB12CC12CD12C1CE5E12EE5
:104090001FE8F12E02E81FE3A20191010E94B80679
:1040A00095E6690E711C86EE681685E07806A1F625
:1040B000B3016C597F4F072E000C880B990B0E949F
:1040C0005F311B012C01B301072C000C880B990BED
:1040D0000E945F313AE0832E912C4AE0A42EB12C4D
:1040E000C12CD12C1CE5E12E1FE8F12E02E81FE3C4
:1040F000A20191010E94B80695E6690E711C88ED37
:10410000681689E07806A1F6B30164567109072E96
:10411000000C880B990B0E945F311B012C01B3012D
:10412000072C000C880B990B0E945F311AE0812E3E
:10413000912C0AE0A02EB12CC12CD12C1CE5E12E33
:104140001FE8F12E02E81FE3A20191010E94B806C8
:1041500095E6691A710886EE681685E07806A1F67C
:10416000B30164567109072E000C880B990B0E944D
:104170005F311B012C01B301072C000C880B990B3C
:104180000E945F31FAE08F2E912CAAE0AA2EB12C6A
:10419000C12CD12C1CE5E12E1FE8F12E02E81FE313
:1041A000A20191010E94B80695E6691A710884EF90
:1041B000681681E07806A1F689859A85019729F429
:1041C00064E670E080E090E06FCD81E090E03ECF6B
:1041D0000E94970386EB90E00E9430110E941F0C12
:1041E00050E4452E56E0552E6AE5662E712C7AE590
:1041F000272E312CE4EBEE2EF12C3A8229823C82E0
:104200002B827E826D82C7018619970998878F83DA
:10421000BE016F5F7F4F8AE090E00E948D0DB2017A
:10422000052C000C880B990B0E945F3101E010E017
:104230002FE030E040E050E00E94F2059FEF691A65
:10424000790A84E1480E511C96E969167104A9F6B1
:1042500020EF422E2AE0522E3AE5232E312C44EB59
:10426000E42EF12C3A8229823C822B827E826D825E
:10427000C7018619970998878F83BE016F5F7F4FAB
:104280008AE090E00E948D0DB201052C000C880B95
:10429000990B0E945F3101E010E02FE030E040E038
:1042A00050E00E94F20581E0681A710894E1490E1D
:1042B000511C8AE568167104A9F68ACB0E949703FF
:1042C00086E990E00E9430110E941F0C8AE5682E5A
:1042D000712C7A8269827C826B8286E490E09E8374
:1042E0008D8393E2492E512C58864F82BE016F5F19
:1042F0007F4F8CE291E00E948D0D01E010E028ECF0
:1043000030E040E050E060E070E081E694E40E943C
:10431000F2057A8269827C826B8287E390E09E83D9
:104320008D8358864F82BE016F5F7F4F8CE291E094
:104330000E948D0D28EC30E040E050E060E070E03D
:1043400086E194E40E94F2057A8269827C826B8223
:104350008AE290E09E838D8358864F82BE016F5F14
:104360007F4F8CE291E00E948D0D28EC30E040E020
:1043700050E060E070E086E993E40E94F2057A8202
:1043800069827C826B8282E290E09E838D83588674
:104390004F82BE016F5F7F4F8CE291E00E948D0DD6
:1043A0000E94AB1028E938E040E050E060E070E0A7
:1043B00086E193E40E94F20568E572E080E090E017
:1043C0000E94B3050E94BB100E94970386E890E00C
:1043D00071CC0E94C71B80910C07811110920C07B1
:1043E0000E94C119009721F10E942A2F9093B103D6
:1043F0008093B0030E94C119009729F10E942A2FCF
:1044000090930301809302010E94C1190097F1F07B
:104410000E942A2F909301018093000180910C0744
:10442000811117C08091B0039091B1030C94671A69
:1044300060ED77E080E090E00E94B3051092B10358
:104440001092B003D7CF88EE93E0DACF8FE090E000
:10445000E1CF08956115710511F00C94C91990E030
:1044600080E00895CF92DF92EF92FF920F931F9317
:10447000CF93DF9320918505309186052930310552
:104480000CF056C08B01EC016901032E000CEE0804
:10449000FF084AE0C701B60137FF0DC06DE282E0B8
:1044A00094E00E94700466277727CB016C197D0980
:1044B0008E099F094AE00E94D8196DEE71E082E0F2
:1044C00094E00E942A226FEE71E082E094E00E9464
:1044D0002A22BE0182E094E00E941E1A8091850586
:1044E00090918605880F991F880F991F42E050E030
:1044F000BE0189579A4F0E9467338091850590913C
:104500008605FC01EE0FFF1FEE0FFF1FE757FA4F66
:104510001183008301969093860580938505DF9132
:10452000CF911F910F91FF90EF90DF90CF90089562
:1045300063E072E082E094E0DF91CF911F910F91F0
:10454000FF90EF90DF90CF900C941E1ACF92DF92E5
:10455000EF92FF920F931F93CF93DF930E94C71B9D
:104560000E94BB100E94C11911E0009721F00E9427
:104570002A2FEC0110E00E94C119009721F00E943F
:104580002A2F1123B1F060ED77E080E090E00E94E7
:10459000B3050E944B1A6CE372E081EB95E0DF916A
:1045A000CF911F910F91FF90EF90DF90CF900C94DF
:1045B0002A226C01990FEE08FF08BE01DD0F880B5F
:1045C000990B0E945F3101E010E0A70196010E9463
:1045D000F205DFCFEF92FF920F931F93CF93DF93FC
:1045E000CDB7DEB761970FB6F894DEBF0FBECDBF73
:1045F00062E472E082E094E00E941E1A0E94C71BEF
:104600000E94BB100E94C1198C01FC010190002086
:10461000E9F731977F01E81AF90A6EE472E082E067
:1046200094E00E942A226E2D660F6E0D660F70E0D8
:1046300090E080E04AE00E94D8196EED71E082E0DF
:1046400094E00E94C9190115110509F47BC081E0AD
:104650008093E4041092E60421E030E03093E30418
:104660002093E2043093E1042093E0048093E50476
:104670008091D6049091D7049093D9048093D80464
:104680008091D4049091D5049093DB048093DA0454
:1046900081E1F801DE01119601900D928A95E1F712
:1046A000198AF12CE12C0E949703F092DD04E0922C
:1046B000DC041092DF041092DE04BE016F5F7F4FB6
:1046C00080ED94E00E942A220E941F0C62E370E0B9
:1046D00080E090E00E94B30581E0E81AF1088BEFDA
:1046E000E8168FEFF806F9F60F5F1F4FF8013197C4
:1046F00080818111CDCF1092E5048091D4049091F6
:10470000D5049093D9048093D8048091D6049091D5
:10471000D7049093DB048093DA040E944B1A6AE575
:1047200072E081EB95E00E941E1A61960FB6F89434
:10473000DEBF0FBECDBFDF91CF911F910F91FF90D4
:10474000EF90089560ED77E080E090E00E94B3057F
:10475000E4CF0E944B3385ED8093BC008091DA0357
:104760009091DB03A091DC03B091DD030796A11DBE
:10477000B11D23E0B695A795979587952A95D1F712
:104780002091BC0024FD03C01092D80308954091ED
:10479000DA035091DB036091DC037091DD03452B5C
:1047A000462B472B69F30097A105B10541F025E39E
:1047B0002A95F1F700000197A109B109E1CF809195
:1047C000D9030C94910ABF92CF92DF92EF92FF929D
:1047D0000F931F93CF93DF93CDB7DEB72B970FB611
:1047E000F894DEBF0FBECDBF0E94C71B0E94BB1056
:1047F0001A821982FE01339689E0DF011D928A95A3
:10480000E9F70E94C119009709F461C0FC01CE01CB
:1048100001967C019F01245F3F4FDC01B82ECF2C15
:104820008191882329F0E217F30711F08D93F8CFD7
:1048300005E010E0D701DD907D01C8010E94832FC3
:10484000D81621F06D2DC8010E948B2F0F5F1F4FCE
:104850000031110579F761E087E00E945D0561E0B4
:1048600087E00E942F056CE271E080E090E00E94FA
:10487000B30560E672E081EB95E00E942A226B2D81
:104880007C2D81EB95E00E941E1A6CE271E080E0C5
:1048900090E00E94B30560E087E00E942F056CE283
:1048A00071E080E090E00E94B3050E944B1A2B96C5
:1048B0000FB6F894DEBF0FBECDBFDF91CF911F9131
:1048C0000F91FF90EF90DF90CF90BF90089560ED33
:1048D00077E080E090E0E7CF3F924F925F926F9257
:1048E0007F928F929F92AF92BF92CF92DF92EF9280
:1048F000FF920F931F93CF93DF93CDB7DEB76397EC
:104900000FB6F894DEBF0FBECDBF69E672E082E05D
:1049100094E00E941E1A0E94C71B0E94BB100E94B6
:10492000C1198C0165E772E082E094E00E942A22BE
:10493000B80182E094E00E941E1A0115110509F4E5
:1049400095C0CE0101966C012E0199E0490E511CD3
:10495000760148015E01E1E1AE0EB11C8AE7682EE6
:1049600082E0782EF4018081898B81818A8B1B8A79
:1049700040E150E070E060E0C5010E943F2EF70189
:1049800061937F011F926F93BF92AF927F926F925C
:104990000E947633F4E08F0E911C0F900F900F90D1
:1049A0000F900F900F90E414F504E1F6460180E1BA
:1049B000880E911CF8018281898B83818A8B1B8AE6
:1049C00040E150E070E060E0C5010E943F2EF70139
:1049D00061937F010C5F1F4FE815F90559F70E949D
:1049E0009703F12CE12C10E000E0330C01151105C8
:1049F00011F4F601308037FE08C021E030E0A70155
:104A0000B80180ED94E00E94E7100F5F1F4F08305F
:104A1000110559F7FFEFEF1AFF0A8FEFC81AD80AEE
:104A200090E1E916F104F9F60E941F0C0E944B1A5E
:104A30006CE872E081EB95E00E941E1A63960FB657
:104A4000F894DEBF0FBECDBFDF91CF911F910F91C4
:104A5000FF90EF90DF90CF90BF90AF909F908F909E
:104A60007F906F905F904F903F90089560ED77E05A
:104A700080E090E00E94B305D9CF1F920F920FB64D
:104A80000F9211242F933F934F935F936F937F93D4
:104A90008F939F93AF93BF93EF93FF9382E094E044
:104AA0000E944E04FF91EF91BF91AF919F918F9122
:104AB0007F916F915F914F913F912F910F900FBE1A
:104AC0000F901F9018951F920F920FB60F921124FE
:104AD0002F938F939F93EF93FF93E0911204F091A4
:104AE00013048081E0911804F091190482FD1BC029
:104AF000908180911B048F5F8F7320911C0482171B
:104B000041F0E0911B04F0E0EE5FFB4F958F809346
:104B10001B04FF91EF919F918F912F910F900FBEEA
:104B20000F901F9018958081F4CF1F920F920FB6AF
:104B30000F9211242F933F938F939F93AF93BF9323
:104B40008091930390919403A0919503B091960363
:104B50003091920323E0230F2D3758F50196A11DC4
:104B6000B11D209392038093930390939403A09399
:104B70009503B09396038091970390919803A09129
:104B80009903B0919A030196A11DB11D80939703DB
:104B900090939803A0939903B0939A03BF91AF9118
:104BA0009F918F913F912F910F900FBE0F901F906B
:104BB000189526E8230F0296A11DB11DD2CF1F9292
:104BC0000F920FB60F9211242F933F934F935F9341
:104BD0006F937F938F939F93AF93BF93EF93FF93C5
:104BE0008091B900887F803609F44AC0F0F5883298
:104BF00009F4A7C018F5803109F49BC0B8F48823E4
:104C000009F4F9C0883009F494C0FF91EF91BF9185
:104C1000AF919F918F917F916F915F914F913F9154
:104C20002F910F900FBE0F901F901895883109F4A7
:104C300088C0803251F78093D60314C0803409F4C1
:104C40009DC040F48033B9F38833F9F68093D603DE
:104C500085ECB0C0803509F485C0883509F496C06C
:104C6000883499F60E94AB23D0CF883909F48CC0E0
:104C700038F5883729F050F4883611F0803729F656
:104C800083E08093D8031092910357C0883809F4C9
:104C90007BC0803919F0803809F0B7CF809191033B
:104CA000803208F071C0E091910381E08E0F809313
:104CB00091038091BB00F0E0EF58FC4F80833DC032
:104CC000803B39F0E0F4803A09F479C0883A09F081
:104CD0009CCF84E08093D8031092700310926F03EE
:104CE000E091A103F091A203099580916F038111D6
:104CF0000FC081E080936F0310924F0309C0803C86
:104D000009F4A6CF883C09F4A3CF883B09F07DCFF6
:104D1000E091700381E08E0F80937003F0E0E15B1F
:104D2000FC4F80818093BB009091700380916F0352
:104D300029C08091B3038093BB0085EC8093BC00B5
:104D400064CF9091D5038091D403981758F5E091E2
:104D5000D50381E08E0F8093D503F0E0EC54FC4F37
:104D60008081E9CFE091D50381E08E0F8093D50358
:104D70008091BB00F0E0EC54FC4F80839091D50310
:104D80008091D4039817C8F285E8D8CFE091D50375
:104D900081E08E0F8093D5038091BB00F0E0EC544E
:104DA000FC4F80838091D70381115CCF81E0809399
:104DB000B20384EA8093BC001092D80326CF85EC1E
:104DC0008093BC001092D80380919103803230F41C
:104DD000E0919103F0E0EF58FC4F10826091910355
:104DE00070E0E0919F03F091A00381E793E00995C3
:104DF000109291030ACF1092D60334CF1F920F92D4
:104E00000FB60F9211242F933F934F935F936F939D
:104E10007F938F939F93AF93BF93CF93DF93EF9342
:104E2000FF9380912D03C091CF04D0E087FF24C071
:104E3000109285001092840080912D038F5F8093E3
:104E40002D0380912D03082E000C990B8C179D07C4
:104E500024F480912D038C30C4F1809184009091D2
:104E60008500049680349C4908F47AC080918400BF
:104E700090918500049676C080912D03082E000C39
:104E8000990B8C179D07C4F6E0912D038E2FEE0F22
:104E9000990BFC01EE0FFF1FE80FF91FE555FB4FC3
:104EA000808186FFC9CFE0912D038E2FEE0F990BE5
:104EB000FC01EE0FFF1FE80FF91FE555FB4F808146
:104EC00060E08F730E942F05B7CF2091840030914E
:104ED0008500E0912D038E2FEE0F990BFC01EE0F54
:104EE000FF1FE80FF91FE555FB4F81819281820F6B
:104EF000931F9093890080938800E0912D038E2F5B
:104F0000EE0F990BFC01EE0FFF1FE80FF91FE5559F
:104F1000FB4F808186FF11C0E0912D038E2FEE0F95
:104F2000990BFC01EE0FFF1FE80FF91FE555FB4F32
:104F3000808161E08F730E942F05FF91EF91DF91D7
:104F4000CF91BF91AF919F918F917F916F915F9121
:104F50004F913F912F910F900FBE0F901F9018957A
:104F600080E49CE990938900809388008FEF809380
:104F70002D03E3CF1F920F920FB60F9211242F93A0
:104F80003F934F935F936F937F938F939F93AF93D1
:104F9000BF93EF93FF93E0919D03F0919E033097B1
:104FA00049F0A685B7858585968D91FF14C09C91A3
:104FB0008923A1F4FF91EF91BF91AF919F918F91C0
:104FC0007F916F915F914F913F912F910F900FBE05
:104FD0000F901F9018959C91892361F7A389B4893C
:104FE0009C918589809589238C93868997890197DF
:104FF000F1F7608D718DA685B785558538E020E085
:10500000CB010197F1F7822F90E095958795282F96
:105010004C91452309F02068315091F7868D81FD30
:10502000209580919C0390E001968F739927309191
:105030009B03381799F0A0919C03B0E0A351BD4F9A
:105040002C9380939C03828D938D0197F1F7A38914
:10505000B4898C919589892B8C93ACCF868D816096
:10506000868FF1CF109205041092040488EE93E02D
:10507000A0E0B0E08093060490930704A093080496
:10508000B093090420E931E0309303042093020433
:1050900025EC30E030930F0420930E0424EC30E034
:1050A000309311042093100420EC30E0309313046B
:1050B0002093120421EC30E0309315042093140463
:1050C00022EC30E0309317042093160426EC30E0F5
:1050D000309319042093180410921B0410921C049E
:1050E00010921D0410921E041092A2041092A104AA
:1050F0008093A3049093A404A093A504B093A60462
:1051000082EA91E09093A00480939F04E1EDF5E0A2
:105110002FEF48EB5BE08091CF048C3008F0E6C0C5
:1051200091E0980F9093CF04808390E0DC01AA0F68
:10513000BB1FA80FB91FA555BB4F12965C934E938A
:105140001197108A1786B99686E0E537F80719F7A0
:105150001092B4051092B30588EE93E0A0E0B0E0A1
:105160008093B5059093B605A093B705B093B805A5
:1051700080ED91E09093B2058093B1051092C8053F
:105180001092C7051092CA051092C9051092CC055D
:105190001092CB051092CE051092CD056091CF05EF
:1051A0006E7F6D7F6093CF056695617081E06827A3
:1051B0008CE00E942F0561E08CE00E945D05EEEC22
:1051C000F6E0E491E093C105EAEBF6E0E491F0E06B
:1051D000EE0FFF1FEC55F94F859194919093C30505
:1051E0008093C20560E08BE00E945D058091CF0551
:1051F00081FD04C061E08BE00E942F058BE080936D
:10520000BD05EDECF6E0E491E093BE05E9EBF6E0D8
:10521000E491F0E0EE0FFF1FE656F94F859194916F
:105220009093C0058093BF0581E090E09093AE0518
:105230008093AD0581EB95E09093B0058093AF0529
:105240008CE790E090937F0580937E058DE08093BE
:1052500080051092860510928505ECEFF4E011921E
:1052600085E0EC37F807D9F710927D0510927C05A0
:105270001092D3041092D20428E030E03093D50489
:105280002093D40480E190E09093D7048093D604D7
:105290003093D9042093D8049093DB048093DA04EC
:1052A0001092E5041092DD041092DC041092DF04E9
:1052B0001092DE0481E08093E4042FEF3FEF3093FF
:1052C000E3042093E2043093E1042093E00480930C
:1052D000E6041092E7041092E9041092E80484EBCB
:1052E00091E09093D1048093D0040895208329CF36
:1052F000CF93DF93CDB7DEB72B970FB6F894DEBF11
:105300000FBECDBF789484B5826084BD84B58160C2
:1053100084BD85B5826085BD85B5816085BD809180
:105320006E00816080936E001092810080918100F8
:1053300082608093810080918100816080938100F0
:10534000809180008160809380008091B1008460B2
:105350008093B1008091B00081608093B000809113
:105360007A00846080937A0080917A0082608093D2
:105370007A0080917A00816080937A0080917A002F
:10538000806880937A001092C100E0911204F0913D
:10539000130482E08083E0910E04F0910F041082E8
:1053A000E0911004F09111048FEC808310921A04A4
:1053B000E0911604F091170486E08083E0911404D4
:1053C000F0911504808180618083E0911404F09154
:1053D0001504808188608083E0911404F0911504A5
:1053E000808180688083E0911404F09115048081AD
:1053F0008F7D80831092CC051092CB051092CA0548
:105400001092C9051092C8051092C7058DE991E068
:105410009093CE058093CD059091BD05963108F00F
:1054200047C02DEB30E03093C8052093C7052BE92A
:1054300031E03093CA052093C9052CE231E0309366
:10544000CC052093CB052091680084E0983048F08B
:1054500031E09E3008F430E081E001C0880F3A95D9
:10546000EAF7822B809368002DE630E0983050F008
:105470002BE630E09E3030F02CE630E0963110F034
:1054800030E020E03093C5052093C405292F30E09B
:10549000983008F064C281E001C0880F9A95EAF75D
:1054A0008093C6058091CD059091CE050197F1F7C7
:1054B0008091CB059091CC05892B49F1E0919D031A
:1054C000F0919E0325E0E13BF20709F1309739F0B6
:1054D000A389B4899C918589809589238C93809137
:1054E000CF058E7F8093CF0510929C0310929B0373
:1054F00081EB95E090939E0380939D03E091C4051A
:10550000F091C50580819091C605892B808360E06C
:105510008AE00E945D0582E090E09093D906809336
:10552000D80683E090E09093DB068093DA0684E06F
:1055300090E09093DD068093DC0685E090E0909308
:10554000DF068093DE060E946D0D10920C0740ED81
:10555000E42E45E0F42E10E000E0C8010E94832F05
:1055600090E0813891050CF09A95D70151969C9363
:105570008E9350970F5F1F4FB9E2EB0EF11C043072
:10558000110559F78AE590E09093E9068093E806C3
:105590009093EB068093EA069093ED068093EC06D9
:1055A0009093EF068093EE0688E090E09093760665
:1055B0008093750689E090E0909378068093770653
:1055C00061E088E00E945D0560E0809177060E94BE
:1055D0005D058DE090E09093F1068093F00684E104
:1055E00090E09093F3068093F20661E08DE00E94D4
:1055F0005D0560E084E10E945D0580E78093FA0428
:105600001092A4031092A3031092DF0310920104DE
:105610000E94730A8AEA93E09093A2038093A10305
:105620008BEA93E09093A00380939F038091FA0408
:1056300011E01093DE038093000461E28FE994E0AF
:105640000E94F00B0E94B20A8091FA041093DE03CC
:10565000809300041092DF031092010461E88FE947
:1056600094E00E94F00B0E94B20A8FE00E94460C68
:1056700080E00E94460C1092E5048091D404909141
:10568000D5049093D9048093D8048091D604909146
:10569000D7049093DB048093DA0460E08EE00E94EC
:1056A0005D0563EE7BE18AE392E00E9432226CE6C4
:1056B00074E282E992E00E94322266EA72E284E9B0
:1056C00092E00E94322269EE7BE18BEE91E00E9433
:1056D000322262E57CE186E992E00E94322269EEA4
:1056E00071E288E992E00E94322263EE73E28AE975
:1056F00092E00E9432226AEE72E28CE992E00E940D
:10570000322283EE9BE19093AC058093AB0590E051
:1057100080E00E9448070E94BB1008E010E066E9A4
:1057200070E080E090E00E94B30501501109B9F7E4
:1057300008E010E066E970E080E090E00E94B305C8
:1057400001501109B9F78BE090E00E94480768EC1E
:1057500070E080E090E00E94B30585E090E00E9458
:10576000832F8332F1F48CEB92E00E944E0F68ECB1
:1057700070E080E090E00E94B30561E070E080910D
:105780000201909103010E94B70E24E130E040E253
:1057900053E060E070E080E090E40E94D3160E9445
:1057A000BB100E94BB1081E08093E4041092E604D9
:1057B00021E030E03093E3042093E2043093E104ED
:1057C0002093E0048093E5048091D6049091D7045F
:1057D0009093D9048093D8048091D4049091D504F7
:1057E0009093DB048093DA0407E010E00E949703B3
:1057F0001093DD040093DC041092DF041092DE04A9
:105800006EE972E080ED94E00E942A220E941F0C53
:1058100062E370E080E090E00E94B305015011095E
:10582000053AEFEF1E0711F71092E5048091D404BA
:105830009091D5049093D9048093D8048091D60494
:105840009091D7049093DB048093DA040E9497032D
:1058500080E796E00E9430110E941F0C2CE7E22E98
:1058600025E0F22E30E0C32E30E0D32EBB24B394DB
:105870008EE00E9406059093A8038093A7032091D1
:10588000A5033091A603232BF1F40197E1F40E94C4
:10589000970380E896E00E9430110E941F0C64EF8D
:1058A00071E080E090E00E94B3050E94970380E7DA
:1058B00096E00E9430110E941F0C6AE676E081EBB0
:1058C00095E00E94371A8091A7039091A8039093C6
:1058D000A6038093A5038AE00E9406058C010E941E
:1058E000E6050130110509F077C02091AF032111C1
:1058F00012C02091AD033091AE03232BE9F56093E4
:10590000A9037093AA038093AB039093AC03109305
:10591000AE030093AD038091AD059091AE05892B48
:1059200009F49FC08091AD059091AE05019709F4EF
:105930003DC180910C07811106C08091B003909108
:10594000B1030E94671AC114D10409F491CF0E94D7
:105950003A04882309F48CCF0E94000089CF9E303E
:1059600040F42850310981E001C0880F2A95EAF7F8
:1059700097CD2E503109F7CF0091A9031091AA03BA
:105980002091AB033091AC03601B710B820B930B26
:105990006C3D7540810591050CF4BDCF6EEA72E057
:1059A00082E094E00E941E1AB092AF0390E080E083
:1059B0000E94480781EB95E00E94611018161906B5
:1059C0000CF0A9CF81EB95E00E947910682F82E05E
:1059D00094E00E947004EECF8091AD039091AE03ED
:1059E0000197D1F58091AF038823B1F181E090E078
:1059F0000E94480760EB72E082E094E00E941E1A69
:105A00001092AF03CE0101964C0105E010E0A82EE4
:105A1000792CC8010E94832FF40181934F010F5FFD
:105A20001F4F00311105A9F768EE73E080E090E0A8
:105A30000E94B3056A2D772D82E094E00E941E1A21
:105A400062EB72E081EB95E00E942A226A2D772DAD
:105A500081EB95E00E941E1A1092AE031092AD03E6
:105A60005ACF82E094E00E942E04181619060CF01A
:105A700059CF8091AD059091AE05892B09F0A6C054
:105A800082E094E00E940C048093FB046091FB048C
:105A900082E094E00E9470041091FB0480918005E4
:105AA0001813AFC06AEB72E082E094E00E942A22F1
:105AB0006CEF74E082E094E00E941E1A10927D0563
:105AC00010927C0543E855E06EE775E08CEF94E0BA
:105AD0000E94512F9093820580938105892B09F4B0
